:100000000C9463000C948B000C948B000C94AB0547
:100010000C94AB050C94AB050C948B000C948B00EA
:100020000C948B000C948B000C948B000C948B0024
:100030000C948B000C948B000C948B000C948B0014
:100040000C9409050C948B000C9479050C945305C1
:100050000C948B000C948B000C948B000C948B00F4
:100060000C948B000C948B000000000024002700EF
:100070002A0000000008000201000003040700003D
:1000800000000000000000000000230026002900FE
:1000900000000000250028002B00040404040404D0
:1000A0000404020202020202030303030303010227
:1000B00004081020408001020408102001020408F6
:1000C00010205406AE0811241FBECFEFD8E0DEBFCB
:1000D000CDBF22E0ACEBB1E001C01D92A93CB2075C
:1000E000E1F711E0A0E0B1E0E0E7F6E102C0059041
:1000F0000D92AC3BB107D9F710E0C2E6D0E004C0E6
:100100002197FE010E942909C136D107C9F70E9433
:10011000FD060C942B0B0C940000833081F028F426
:10012000813099F08230A1F008958730A9F08830AD
:10013000B9F08430D1F4809180008F7D03C080912C
:1001400080008F7780938000089584B58F7702C0F8
:1001500084B58F7D84BD08958091B0008F7703C0F2
:100160008091B0008F7D8093B0000895CF93DF938E
:1001700090E0FC01E255FF4F2491FC01E656FF4F51
:100180008491882361F190E0880F991FFC01E85960
:10019000FF4FC591D491FC01E057FF4FA591B49159
:1001A000611109C09FB7F8948881209582238883C4
:1001B000EC912E230BC0623061F49FB7F8948881D4
:1001C000322F309583238883EC912E2B2C939FBF65
:1001D00006C08FB7F894E8812E2B28838FBFDF915C
:1001E000CF9108953FB7F89480910502909106024F
:1001F000A0910702B091080226B5A89B05C02F3F29
:1002000019F00196A11DB11D3FBFBA2FA92F982F3C
:100210008827820F911DA11DB11DBC01CD0142E0B7
:10022000660F771F881F991F4A95D1F708958F92FF
:100230009F92AF92BF92CF92DF92EF92FF926B01AB
:100240007C010E94F2004B015C01C114D104E10465
:10025000F104F1F00E94F200DC01CB018819990948
:10026000AA09BB09883E9340A105B10570F321E0BE
:10027000C21AD108E108F10888EE880E83E0981EC2
:10028000A11CB11CC114D104E104F10419F7DDCFA4
:10029000FF90EF90DF90CF90BF90AF909F908F90A6
:1002A0000895CF92DF92EF92FF920F931F93CF9317
:1002B000DF936C017A018B01C0E0D0E0CE15DF0541
:1002C00081F0D8016D918D01D601ED91FC910190E5
:1002D000F081E02DC6010995892B11F02196EECF12
:1002E0007E01C701DF91CF911F910F91FF90EF9099
:1002F000DF90CF900895FC01538D448D252F30E081
:10030000842F90E0821B930B541710F0CF96089522
:1003100001970895FC01918D828D981761F0828D6F
:10032000DF01A80FB11D5D968C91928D9F5F9F7329
:10033000928F90E008958FEF9FEF0895FC01918DCB
:10034000828D981731F0828DE80FF11D858D90E038
:1003500008958FEF9FEF0895FC01918D228D892FD5
:1003600090E0805C9F4F821B91098F7399270895BD
:1003700089E092E00E94AC0121E0892B09F420E0A1
:10038000822F0895FC01848DDF01A80FB11DA35AAF
:10039000BF4F2C91848D90E001968F739927848FA5
:1003A000A689B7892C93A089B1898C9183708064C8
:1003B0008C93938D848D981306C00288F389E02D69
:1003C00080818F7D80830895EF92FF920F931F931A
:1003D000CF93DF93EC0181E0888F9B8D8C8D9813F8
:1003E00005C0E889F989808185FD26C0F62E0B8D30
:1003F00010E00F5F1F4F0F731127E02E8C8DE81256
:100400000CC00FB607FCFACFE889F989808185FF17
:10041000F5CFCE010E94C201F1CF8B8DFE01E80F16
:10042000F11DE35AFF4FF0829FB7F8940B8FEA89D2
:10043000FB89808180620AC09FB7F894EE89FF89AA
:100440006083E889F98980818370806480839FBF9D
:1004500081E090E0DF91CF911F910F91FF90EF909D
:100460000895CF93DF93EC01888D8823C9F0EA8942
:10047000FB89808185FD05C0A889B9898C9186FD9D
:100480000FC00FB607FCF5CF808185FFF2CFA8899A
:10049000B9898C9185FFEDCFCE010E94C201E7CFD3
:1004A000DF91CF91089580E090E0892B29F00E94A0
:1004B000B80181110C94000008952091FE01309143
:1004C000FF012817390771F49091FC018091FD011B
:1004D000981741F0E091FC01F0E0E454FE4F808178
:1004E00090E008958FEF9FEF089508951F93CF93A5
:1004F000DF93DC015C968D919C915D97009739F4B8
:1005000021E030E013963C932E9312973BC0519616
:10051000ED91FC91529750962C915097322F309537
:100520001FB75E964C915E97742F727041FD609577
:10053000F8944081772311F0422B01C0432340837C
:10054000EC012197F1F748E0508160FF02C0522B87
:1005500001C053235083EC012197F1F76695415078
:1005600099F78081772319F08323808302C0282B99
:1005700020831FBF5C968D919C915D970197F1F749
:1005800081E090E0DF91CF911F9108952091FE01CD
:100590003091FF012817390771F48091FD012091F6
:1005A000FC0190E0805C9F4F821B910960E470E049
:1005B0000E940109089580E090E008952091FE01D5
:1005C0003091FF0128173907B9F49091FC0180910F
:1005D000FD01981789F0E091FC01F0E0E454FE4F32
:1005E00080812091FC0130E02F5F3F4F2F73332734
:1005F0002093FC0190E008958FEF9FEF08950895F8
:1006000080E090E00895FC01808191810C94C709FD
:10061000CF93DF93EC0188819981009711F00E94BC
:10062000C709198218821D821C821B821A82DF91DF
:10063000CF9108950E94160B6115710579F0FB01A9
:1006400001900020E9F73197AF01461B570BDC0101
:10065000ED91FC910280F381E02D099480E090E01F
:1006600008950F931F93CF93DF93EC0188819981B5
:10067000009729F02A813B812617370788F48B01E0
:100680006F5F7F4F0E94500A009761F099838883C3
:100690001B830A832C813D81232B11F4FC011082E2
:1006A00081E001C080E0DF91CF911F910F9108950B
:1006B000EF92FF920F931F93CF93DF936115710514
:1006C00011F480E01CC041155105C1F07B01EC0123
:1006D0008C819D818A01080F191FB801CE010E94EB
:1006E0003103882371F3288139818C819D81B70181
:1006F000820F931F0E94240B1D830C8381E0DF91E6
:10070000CF911F910F91FF90EF900895CF93DF93BA
:10071000EC016115710561F0FB0101900020E9F722
:100720003197AF01461B570B0E945803811103C03C
:10073000CE010E940803CE01DF91CF910895EF9280
:10074000FF920F931F93CF93DF93EC0186179707C8
:10075000C1F0FB01008111810115110539F0E48020
:10076000F580B7010E943103811104C0CE010E94BF
:10077000080307C0FD82EC82B801888199810E943C
:10078000240BCE01DF91CF911F910F91FF90EF903D
:100790000895EF92FF920F931F93CF93DF93EC0195
:1007A000198218821B821A821D821C8261157105B2
:1007B00021F18B01FB0101900020E9F731977F01C6
:1007C000E61AF70AB7010E943103811109C0CE0170
:1007D000DF91CF911F910F91FF90EF900C94080340
:1007E000FD82EC82B80188819981DF91CF911F91C0
:1007F0000F91FF90EF900C94240BDF91CF911F91FC
:100800000F91FF90EF900895CF92DF92EF92FF92B9
:100810000F931F93CF93DF93CDB7DEB762970FB6D9
:10082000F894DEBF0FBECDBF8B017A019C01332748
:10083000F901EE58FF4F8491F901E255FF4FD49032
:10084000F901E656FF4FC490CC2079F081110E9447
:100850008D00EC2DF0E0EE0FFF1FEA57FF4FA59142
:10086000B491EC91DE2209F0C5C068E671E089E040
:1008700092E00E941C036FE271E089E092E00E9426
:100880001C0368EC70E080E090E00E94170118867D
:100890001F821A8619861C861B86B701CE01079611
:1008A0000E949F031E861D86188A1F861A8A198A2F
:1008B000B801CE010D960E949F0367E771E0CE015B
:1008C00001960E94C90349895A896D857E85CE01AA
:1008D00001960E945803811104C0CE0101960E9426
:1008E00008036AE271E0CE0101960E948603FC01D2
:1008F000448155816081718189E092E00E945101BB
:100900006FE271E089E092E00E941C03CE01019643
:100910000E94030362E371E086EA92E00E941C03F6
:1009200064E670E080E090E00E9417016DE371E002
:10093000CE0101960E94C9034B855C856F81788545
:10094000CE0101960E945803811104C0CE01019688
:100950000E94080367E471E0CE0101960E948603BD
:10096000FC01448155816081718186EA92E00E9498
:100970005101CE0101960E94030364EF71E080E013
:1009800090E00E9417016AE471E086EA92E00E941A
:100990001C0364EF71E080E090E00E9417016AE1BF
:1009A00086EA92E00E94760264EF71E080E090E0D7
:1009B0000E9417016FE271E086EA92E00E941C0338
:1009C0006DE571E089E092E00E941C036FE271E046
:1009D00089E092E00E941C0364EF71E080E090E007
:1009E0000E941701CE010D960E940303CE010796C7
:1009F0000E94030362960FB6F894DEBF0FBECDBF10
:100A0000DF91CF911F910F91FF90EF90DF90CF90EA
:100A100008951F920F920FB60F9211242F933F93B8
:100A20008F939F93AF93BF938091010290910202A5
:100A3000A0910302B09104023091000223E0230F41
:100A40002D3720F40196A11DB11D05C026E8230F06
:100A50000296A11DB11D2093000280930102909384
:100A60000202A0930302B0930402809105029091C8
:100A70000602A0910702B09108020196A11DB11DC6
:100A80008093050290930602A0930702B093080298
:100A9000BF91AF919F918F913F912F910F900FBE7A
:100AA0000F901F9018951F920F920FB60F9211245E
:100AB0002F933F934F935F936F937F938F939F9366
:100AC000AF93BF93EF93FF9389E092E00E94C2013E
:100AD000FF91EF91BF91AF919F918F917F916F9116
:100AE0005F914F913F912F910F900FBE0F901F90EC
:100AF00018951F920F920FB60F9211242F938F9378
:100B00009F93EF93FF93E0911902F0911A02808175
:100B1000E0911F02F091200282FD12C0908180912D
:100B200022028F5F8F7320912302821751F0E09190
:100B30002202F0E0E75FFD4F958F8093220201C013
:100B40008081FF91EF919F918F912F910F900FBE18
:100B50000F901F9018951F920F920FB60F921124AD
:100B60002F933F934F935F936F937F938F939F93B5
:100B7000AF93BF93EF93FF93E091FE01F091FF01DC
:100B8000309709F451C0968DA685B785858591FF6C
:100B900004C09C91892329F447C09C91892309F0C2
:100BA00043C0A389B4899C918589809589238C93BE
:100BB000868997890197F1F7608D718DA685B78534
:100BC000558538E020E0CB010197F1F7822F90E0C6
:100BD00095958795282F4C91452309F02068315031
:100BE00091F7868D81FD20958091FD0190E0019621
:100BF0008F7399273091FC01381749F0A091FD01BE
:100C0000B0E0A454BE4F2C938093FD0103C0868DA9
:100C10008160868F828D938D0197F1F7A389B489C6
:100C20009C918589892B8C93FF91EF91BF91AF9116
:100C30009F918F917F916F915F914F913F912F91F4
:100C40000F900FBE0F901F9018951F93CF93DF93B7
:100C5000282F30E0F901EE58FF4F8491F901E25559
:100C6000FF4FD491F901E656FF4FC491CC23C1F058
:100C7000162F81110E948D00EC2FF0E0EE0FFF1F68
:100C8000E057FF4FA591B4919FB7F894111104C09C
:100C90008C91D095D82302C0EC91DE2BDC939FBFC2
:100CA000DF91CF911F91089510920C0210920B02C8
:100CB00088EE93E0A0E0B0E080930D0290930E02E6
:100CC000A0930F02B09310022AE031E030930A02A1
:100CD0002093090225EC30E0309316022093150290
:100CE00024EC30E0309318022093170220EC30E01F
:100CF00030931A022093190221EC30E030931C0249
:100D000020931B0222EC30E030931E0220931D0240
:100D100026EC30E03093200220931F021092220232
:100D20001092230210922402109225021092A9021E
:100D30001092A8028093AA029093AB02A093AC02F7
:100D4000B093AD028CE191E09093A7028093A6024C
:100D50001092BD021092BC021092BF021092BE020D
:100D60001092C1021092C0021092C3021092C202ED
:100D70006091C4026E7F6D7F6093C402669561705E
:100D800081E068270E94250661E081E00E94B600AC
:100D9000EFEAF0E0E491E093B602EBE9F0E0E491F1
:100DA000F0E0EE0FFF1FE057FF4F85919491909375
:100DB000B8028093B70260E080E00E94B6008091A4
:100DC000C40281FD04C061E080E00E94250610920B
:100DD000B202EEEAF0E0E491E093B302EAE9F0E077
:100DE000E491F0E0EE0FFF1FEA57FF4F85919491D9
:100DF0009093B5028093B4020895CF93DF93CDB75B
:100E0000DEB72C970FB6F894DEBF0FBECDBF789437
:100E100084B5826084BD84B5816084BD85B58260FF
:100E200085BD85B5816085BD80916E0081608093B0
:100E30006E00109281008091810082608093810019
:100E40008091810081608093810080918000816029
:100E5000809380008091B10084608093B100809184
:100E6000B00081608093B00080917A0084608093AC
:100E70007A0080917A00826080937A0080917A0073
:100E8000816080937A0080917A00806880937A00F4
:100E90001092C10062E087E00E94B60062E089E043
:100EA0000E94B60062E08AE00E94B60062E08BE039
:100EB0000E94B6001092C1021092C0021092BF02AE
:100EC0001092BE021092BD021092BC028DE991E018
:100ED0009093C3028093C2029091B202963108F0BF
:100EE00058C02DEB30E03093BD022093BC022BE9BB
:100EF00031E03093BF022093BE022CE231E0309308
:100F0000C1022093C00240916800983058F031E04F
:100F10009E3008F430E021E0822F01C0880F3A951E
:100F2000EAF701C084E0842B80936800983038F0A1
:100F30009E3040F0963148F020E030E008C02DE6C9
:100F400030E005C02BE630E002C02CE630E0309304
:100F5000BA022093B902983030F481E001C0880FC2
:100F60009A95EAF70EC0292F30E09E3018F42850E9
:100F7000310902C02E50310981E001C0880F2A9545
:100F8000EAF78093BB028091C2029091C30201975D
:100F9000F1F78091C0029091C102892B49F1E09153
:100FA000FE01F091FF0182E0E63AF80709F130977F
:100FB00039F0A389B4899C918589809589238C9384
:100FC0008091C4028E7F8093C4021092FD01109222
:100FD000FC0186EA92E09093FF018093FE01E0918C
:100FE000B902F091BA0290818091BB02892B808373
:100FF000E0911902F0911A0282E08083E0911502DB
:10100000F09116021082E0911702F09118028FEC15
:10101000808310922102E0911D02F0911E0286E071
:101020008083E0911B02F0911C02808180618083AB
:10103000E0911B02F0911C02808188608083E09126
:101040001B02F0911C02808180688083E0911B026A
:10105000F0911C0280818F7D808368EE73E080E0D8
:1010600090E00E94170167E871E0CE0101960E94AE
:10107000C90364E971E0CE0107960E94C903AE017D
:101080004F5F5F4FBE01695F7F4F87E090E00E9436
:101090000404CE0107960E940303CE0101960E942C
:1010A000030367E871E0CE0101960E94C9036AE973
:1010B00071E0CE0107960E94C903AE014F5F5F4FFA
:1010C000BE01695F7F4F89E090E00E940404CE0179
:1010D00007960E940303CE0101960E94030367E86E
:1010E00071E0CE0101960E94C90365EA71E0CE016C
:1010F00007960E94C903AE014F5F5F4FBE01695F53
:101100007F4F8AE090E00E940404CE0107960E947F
:101110000303CE0101960E94030367E871E0CE014C
:1011200001960E94C90360EB71E0CE0107960E9410
:10113000C903AE014F5F5F4FBE01695F7F4F8BE018
:1011400090E00E940404CE0107960E940303CE01A2
:1011500001960E9403030E94530285CF8CE191E027
:101160009093A7028093A6028091FE019091FF01C7
:10117000865A924071F4E091B902F091BA029081DE
:101180008091BB028095892380831092FF01109289
:10119000FE0108952F923F924F925F926F927F923D
:1011A0008F929F92AF92BF92CF92DF92EF92FF9277
:1011B0000F931F93CF93DF93CDB7DEB7CA1BDB0B23
:1011C0000FB6F894DEBF0FBECDBF09942A883988C8
:1011D00048885F846E847D848C849B84AA84B984CF
:1011E000C884DF80EE80FD800C811B81AA81B981DB
:1011F000CE0FD11D0FB6F894DEBF0FBECDBFED01EF
:10120000089597FB072E16F4009407D077FD09D0B8
:101210000E94150907FC05D03EF4909581959F4FDB
:101220000895709561957F4F0895AA1BBB1B51E1EE
:1012300007C0AA1FBB1FA617B70710F0A61BB70B46
:10124000881F991F5A95A9F780959095BC01CD01EB
:101250000895EE0FFF1F0590F491E02D09940F9370
:101260001F93CF93DF938230910510F482E090E0DA
:10127000E091C702F091C80220E030E0A0E0B0E0C9
:10128000309719F140815181028113814817590724
:10129000C8F08417950769F4109731F012960C93F3
:1012A000129713961C9327C00093C7021093C8028D
:1012B00022C02115310519F04217530718F49A017D
:1012C000BD01EF01DF01F801DBCF21153105F9F098
:1012D000281B390B2430310580F48A819B816115EC
:1012E000710521F0FB019383828304C09093C802AF
:1012F0008093C702FE01329644C0FE01E20FF31F45
:101300008193919322503109398328833AC02091E7
:10131000C5023091C602232B41F420910201309185
:1013200003013093C6022093C50220910001309141
:1013300001012115310541F42DB73EB7409104015B
:1013400050910501241B350BE091C502F091C602B6
:10135000E217F307A0F42E1B3F0B2817390778F08C
:10136000AC014E5F5F4F2417350748F04E0F5F1FEB
:101370005093C6024093C5028193919302C0E0E06E
:10138000F0E0CF01DF91CF911F910F910895CF939E
:10139000DF93009709F481C0FC0132971382128217
:1013A000A091C702B091C802109781F420813181C9
:1013B000820F931F2091C5023091C602281739076A
:1013C00051F5F093C602E093C50267C0ED0120E03D
:1013D00030E0CE17DF0740F44A815B819E01411562
:1013E0005105F1F0EA01F5CFD383C28340815181E9
:1013F000840F951FC817D90759F488819981840FE4
:10140000951F0296918380838A819B819383828337
:101410002115310529F4F093C802E093C7023DC0BD
:10142000E901FB83EA8349915991C40FD51FEC1759
:10143000FD0761F480819181840F951F0296E90177
:1014400099838883828193819B838A83E0E0F0E0A3
:1014500012968D919C911397009719F0FD01DC0174
:10146000F7CF8D919C9111979D012E5F3F4F820F79
:10147000931F2091C5023091C6022817390769F4DD
:10148000309729F41092C8021092C70202C013824A
:101490001282B093C602A093C502DF91CF91089546
:1014A000A0E0B0E0E6E5FAE00C94CE08EC0100978D
:1014B00021F4CB010E942F09B4C0FC01E60FF71FF5
:1014C0009C0122503109E217F30708F4A8C0D901A2
:1014D0000D911C91119706171707B0F005301105F3
:1014E00008F49BC0C80104978617970708F495C0B5
:1014F00002501109061B170B019311936D937C93F6
:10150000CF010E94C70989C05B01A01AB10A4C0132
:10151000800E911EA091C702B091C802612C712C5F
:10152000E12CF12C109709F446C08D919C911197F4
:10153000A815B905B1F56C0142E0C40ED11CCA145E
:10154000DB0478F14C018A189B08640142E0C40E68
:10155000D11C1296BC9012971396AC91B5E0CB16A5
:10156000D10440F0B282A38391828082D9016D932D
:101570007C9309C00E5F1F4F800F911FF90191836B
:101580008083EB2DFA2FE114F10431F0D70113968B
:10159000FC93EE93129741C0F093C802E093C70208
:1015A0003CC06816790608F43C017D0112960D9046
:1015B000BC91A02DB7CF8091C5029091C60288162C
:1015C0009906E1F466167706C8F4809100019091BF
:1015D0000101009741F48DB79EB7409104015091ED
:1015E0000501841B950BE817F907C8F4F093C602B0
:1015F000E093C502F901718360830FC0CB010E94A3
:101600002F097C01009759F0A801BE010E941B0B15
:10161000CE010E94C709C70104C0CE0102C080E00C
:1016200090E0CDB7DEB7EEE00C94EA0881E090E000
:10163000F8940C942B0BFB01DC0102C001900D927D
:1016400041505040D8F70895FB01DC0101900D9204
:101650000020E1F7089510E0C2E6D0E004C0FE01EA
:101660000E9429092196C336D107C9F7F894FFCF04
:101670000000C902800000000000E40151017B016C
:101680003102AC018A019E01000000007602510186
:1016900000037502C602DE025D02202E2E2E000D12
:1016A0000A0041542B434D47463D310D0041542B18
:1016B000434D47533D2200220D0053494D383030F1
:1016C0006C20697320776F726B696E670054657860
:1016D000742053656E742E00427574746F6E2070A2
:1016E0007265737365640053656E64696E67205339
:1016F0004D5320746F20002B32313632363330395F
:10170000353838007069766F74007375706572765D
:1017100069736F7200746563686E696369656E00F2
:0C1720006C696E652063686965660000F6
:107E0000112484B714BE81FFF0D085E080938100F7
:107E100082E08093C00088E18093C10086E0809377
:107E2000C20080E18093C4008EE0C9D0259A86E02C
:107E300020E33CEF91E0309385002093840096BBD3
:107E4000B09BFECF1D9AA8958150A9F7CC24DD24C4
:107E500088248394B5E0AB2EA1E19A2EF3E0BF2EE7
:107E6000A2D0813461F49FD0082FAFD0023811F036
:107E7000013811F484E001C083E08DD089C08234E0
:107E800011F484E103C0853419F485E0A6D080C0E4
:107E9000853579F488D0E82EFF2485D0082F10E0AE
:107EA000102F00270E291F29000F111F8ED06801E7
:107EB0006FC0863521F484E090D080E0DECF843638
:107EC00009F040C070D06FD0082F6DD080E0C81688
:107ED00080E7D80618F4F601B7BEE895C0E0D1E017
:107EE00062D089930C17E1F7F0E0CF16F0E7DF06D8
:107EF00018F0F601B7BEE89568D007B600FCFDCFD4
:107F0000A601A0E0B1E02C9130E011968C91119780
:107F100090E0982F8827822B932B1296FA010C0160
:107F200087BEE89511244E5F5F4FF1E0A038BF0790
:107F300051F7F601A7BEE89507B600FCFDCF97BE46
:107F4000E89526C08437B1F42ED02DD0F82E2BD052
:107F50003CD0F601EF2C8F010F5F1F4F84911BD097
:107F6000EA94F801C1F70894C11CD11CFA94CF0C13
:107F7000D11C0EC0853739F428D08EE10CD085E9AC
:107F80000AD08FE07ACF813511F488E018D01DD067
:107F900080E101D065CF982F8091C00085FFFCCF94
:107FA0009093C60008958091C00087FFFCCF809118
:107FB000C00084FD01C0A8958091C6000895E0E648
:107FC000F0E098E1908380830895EDDF803219F02E
:107FD00088E0F5DFFFCF84E1DECF1F93182FE3DFCA
:107FE0001150E9F7F2DF1F91089580E0E8DFEE27F6
:047FF000FF270994CA
:027FFE00040479
:0400000300007E007B
:00000001FF
